{
  "contractName": "IdoDFY",
  "abi": [
    {
      "anonymous": false,
      "inputs": [
        {
          "indexed": false,
          "internalType": "uint256",
          "name": "amount",
          "type": "uint256"
        }
      ],
      "name": "BuyIdoSuccess",
      "type": "event"
    },
    {
      "anonymous": false,
      "inputs": [
        {
          "indexed": true,
          "internalType": "address",
          "name": "previousOwner",
          "type": "address"
        },
        {
          "indexed": true,
          "internalType": "address",
          "name": "newOwner",
          "type": "address"
        }
      ],
      "name": "OwnershipTransferred",
      "type": "event"
    },
    {
      "inputs": [
        {
          "internalType": "address",
          "name": "",
          "type": "address"
        }
      ],
      "name": "exchangeValues",
      "outputs": [
        {
          "internalType": "uint256",
          "name": "outputDFYNumber",
          "type": "uint256"
        },
        {
          "internalType": "uint256",
          "name": "inputTokenNumber",
          "type": "uint256"
        },
        {
          "internalType": "bool",
          "name": "isExist",
          "type": "bool"
        }
      ],
      "stateMutability": "view",
      "type": "function"
    },
    {
      "inputs": [],
      "name": "owner",
      "outputs": [
        {
          "internalType": "address",
          "name": "",
          "type": "address"
        }
      ],
      "stateMutability": "view",
      "type": "function"
    },
    {
      "inputs": [],
      "name": "renounceOwnership",
      "outputs": [],
      "stateMutability": "nonpayable",
      "type": "function"
    },
    {
      "inputs": [
        {
          "internalType": "address",
          "name": "newOwner",
          "type": "address"
        }
      ],
      "name": "transferOwnership",
      "outputs": [],
      "stateMutability": "nonpayable",
      "type": "function"
    },
    {
      "inputs": [
        {
          "internalType": "address",
          "name": "tokenAddress",
          "type": "address"
        },
        {
          "internalType": "uint256",
          "name": "outputDFYNumber",
          "type": "uint256"
        },
        {
          "internalType": "uint256",
          "name": "inputTokenNumber",
          "type": "uint256"
        }
      ],
      "name": "upsertExchangePair",
      "outputs": [],
      "stateMutability": "nonpayable",
      "type": "function"
    },
    {
      "inputs": [
        {
          "internalType": "address",
          "name": "tokenAddress",
          "type": "address"
        }
      ],
      "name": "deleteExchangePair",
      "outputs": [],
      "stateMutability": "nonpayable",
      "type": "function"
    },
    {
      "inputs": [],
      "name": "getOwner",
      "outputs": [
        {
          "internalType": "address",
          "name": "",
          "type": "address"
        }
      ],
      "stateMutability": "view",
      "type": "function"
    },
    {
      "inputs": [
        {
          "internalType": "address",
          "name": "tokenAddress",
          "type": "address"
        },
        {
          "internalType": "uint256",
          "name": "amount",
          "type": "uint256"
        }
      ],
      "name": "buyIdo",
      "outputs": [],
      "stateMutability": "nonpayable",
      "type": "function"
    }
  ],
  "bytecode": "0x6080604052600180546001600160a01b03191673b6bd9bba44c8369d47f07ccc9032e65e811a112d17905534801561003657600080fd5b506000610041610090565b600080546001600160a01b0319166001600160a01b0383169081178255604051929350917f8be0079c531659141344cd1fd0a4f28419497f9722a3daafe3b4186f6b6457e0908290a350610094565b3390565b610a53806100a36000396000f3fe608060405234801561001057600080fd5b50600436106100885760003560e01c80638da5cb5b1161005b5780638da5cb5b1461010d5780639cac0f1514610115578063d0c3d52614610147578063f2fde38b1461018d57610088565b8063187e576b1461008d57806356bd5e10146100bb578063715018a6146100e1578063893d20e8146100e9575b600080fd5b6100b9600480360360408110156100a357600080fd5b506001600160a01b0381351690602001356101b3565b005b6100b9600480360360208110156100d157600080fd5b50356001600160a01b0316610699565b6100b9610749565b6100f16107eb565b604080516001600160a01b039092168252519081900360200190f35b6100f16107fa565b6100b96004803603606081101561012b57600080fd5b506001600160a01b038135169060208101359060400135610809565b61016d6004803603602081101561015d57600080fd5b50356001600160a01b03166108b8565b604080519384526020840192909252151582820152519081900360600190f35b6100b9600480360360208110156101a357600080fd5b50356001600160a01b03166108db565b6001600160a01b0382166000908152600260208190526040909120015460ff16610224576040805162461bcd60e51b815260206004820152601b60248201527f45786368616e67652070616972206973206e6f74206578697374210000000000604482015290519081900360640190fd5b604080516370a0823160e01b81523360048201529051839183916001600160a01b038416916370a08231916024808301926020929190829003018186803b15801561026e57600080fd5b505afa158015610282573d6000803e3d6000fd5b505050506040513d602081101561029857600080fd5b5051116102ec576040805162461bcd60e51b815260206004820152601d60248201527f5472616e7366657220746f6b656e2062616c616e636520746f206c6f77000000604482015290519081900360640190fd5b6001600160a01b03831660009081526002602052604081206001810154905484028161031457fe5b600154604080516370a0823160e01b8152306004820152905193909204935083926001600160a01b03909116916370a08231916024808301926020929190829003018186803b15801561036657600080fd5b505afa15801561037a573d6000803e3d6000fd5b505050506040513d602081101561039057600080fd5b5051116103dc576040805162461bcd60e51b8152602060048201526015602482015274111196481d1bdad95b881b9bdd08195b9bdd59da1d605a1b604482015290519081900360640190fd5b6001546040805163095ea7b360e01b81523360048201526024810184905290516001600160a01b039092169163095ea7b3916044808201926020929091908290030181600087803b15801561043057600080fd5b505af1158015610444573d6000803e3d6000fd5b505050506040513d602081101561045a57600080fd5b50516104a3576040805162461bcd60e51b815260206004820152601360248201527244465920617070726f7665206661696c65642160681b604482015290519081900360640190fd5b6001546040805163a9059cbb60e01b81523360048201526024810184905290516001600160a01b039092169163a9059cbb916044808201926020929091908290030181600087803b1580156104f757600080fd5b505af115801561050b573d6000803e3d6000fd5b505050506040513d602081101561052157600080fd5b5051610574576040805162461bcd60e51b815260206004820152601b60248201527f546f6b656e2044465920616c6c6f77616e636520746f6f206c6f770000000000604482015290519081900360640190fd5b816001600160a01b03166323b872dd3361058c6107fa565b866040518463ffffffff1660e01b815260040180846001600160a01b03168152602001836001600160a01b031681526020018281526020019350505050602060405180830381600087803b1580156105e357600080fd5b505af11580156105f7573d6000803e3d6000fd5b505050506040513d602081101561060d57600080fd5b5051610660576040805162461bcd60e51b815260206004820181905260248201527f546f6b656e207472616e7366657220616c6c6f77616e636520746f6f206c6f77604482015290519081900360640190fd5b6040805182815290517f49b657a02138236629455748de8f2f8c61d04dde90c5b56f6479d51b27c9412b9181900360200190a150505050565b6106a16109d3565b6000546001600160a01b039081169116146106f1576040805162461bcd60e51b815260206004820181905260248201526000805160206109fe833981519152604482015290519081900360640190fd5b6001600160a01b0381166000908152600260208190526040909120015460ff1661071a57600080fd5b6001600160a01b031660009081526002602081905260408220828155600181019290925501805460ff19169055565b6107516109d3565b6000546001600160a01b039081169116146107a1576040805162461bcd60e51b815260206004820181905260248201526000805160206109fe833981519152604482015290519081900360640190fd5b600080546040516001600160a01b03909116907f8be0079c531659141344cd1fd0a4f28419497f9722a3daafe3b4186f6b6457e0908390a3600080546001600160a01b0319169055565b60006107f56107fa565b905090565b6000546001600160a01b031690565b6108116109d3565b6000546001600160a01b03908116911614610861576040805162461bcd60e51b815260206004820181905260248201526000805160206109fe833981519152604482015290519081900360640190fd5b60408051606081018252928352602080840192835260018483018181526001600160a01b03969096166000908152600292839052929092209351845591519083015591519101805460ff1916911515919091179055565b600260208190526000918252604090912080546001820154919092015460ff1683565b6108e36109d3565b6000546001600160a01b03908116911614610933576040805162461bcd60e51b815260206004820181905260248201526000805160206109fe833981519152604482015290519081900360640190fd5b6001600160a01b0381166109785760405162461bcd60e51b81526004018080602001828103825260268152602001806109d86026913960400191505060405180910390fd5b600080546040516001600160a01b03808516939216917f8be0079c531659141344cd1fd0a4f28419497f9722a3daafe3b4186f6b6457e091a3600080546001600160a01b0319166001600160a01b0392909216919091179055565b339056fe4f776e61626c653a206e6577206f776e657220697320746865207a65726f20616464726573734f776e61626c653a2063616c6c6572206973206e6f7420746865206f776e6572a26469706673582212205c0546e9af2022c9281d56be6f47f5338f5a3e4f0d5bab5447d218ff5810cc9f64736f6c63430007020033",
  "immutableReferences": {},
  "source": "// SPDX-License-Identifier: MIT\n\npragma solidity ^0.7.0;\nimport \"@openzeppelin/contracts/token/ERC20/IERC20.sol\";\nimport \"@openzeppelin/contracts/access/Ownable.sol\";\n//import \"https://github.com/OpenZeppelin/openzeppelin-contracts/blob/v3.3.0/contracts/token/ERC20/ERC20.sol\";\n//import \"https://github.com/OpenZeppelin/openzeppelin-contracts/blob/v3.3.0/contracts/access/Ownable.sol\";\n\ncontract IdoDFY is Ownable {\n\n    IERC20 private DFYToken = IERC20(address(0xB6bd9Bba44C8369D47f07CcC9032e65E811A112d));\n\n    struct ExchangeValue {\n        uint256 outputDFYNumber;\n        uint256 inputTokenNumber;\n        bool isExist;\n    }\n\n    mapping(address => ExchangeValue) public exchangeValues;\n\n    function upsertExchangePair(address tokenAddress,uint256 outputDFYNumber,uint256 inputTokenNumber) public onlyOwner {\n        exchangeValues[tokenAddress] = ExchangeValue(outputDFYNumber, inputTokenNumber, true);\n    }\n\n    function deleteExchangePair(address tokenAddress) public onlyOwner {\n        require(exchangeValues[tokenAddress].isExist);\n\n        delete exchangeValues[tokenAddress];\n    }\n\n    function getOwner() external view returns (address) {\n        return owner();\n    }\n\n    event BuyIdoSuccess(uint256 amount);\n\n    function buyIdo(address tokenAddress, uint256 amount) external {\n        require(exchangeValues[tokenAddress].isExist, \"Exchange pair is not exist!\");\n\n        IERC20 transferToken = IERC20(tokenAddress);\n\n        require(transferToken.balanceOf(msg.sender) > amount, \"Transfer token balance to low\");\n\n        uint256 outputDFYAmount = exchangeValues[tokenAddress].outputDFYNumber * amount / exchangeValues[tokenAddress].inputTokenNumber;\n\n        require(DFYToken.balanceOf(address(this)) > outputDFYAmount, \"DFY token not enought\");\n\n        require(DFYToken.approve(msg.sender, outputDFYAmount), \"DFY approve failed!\");\n\n        require(DFYToken.transfer(msg.sender, outputDFYAmount), \"Token DFY allowance too low\");\n\n        // require  DFY.approve(owner(), amount)\n        require(transferToken.transferFrom(msg.sender, owner(), amount), \"Token transfer allowance too low\");\n\n        emit BuyIdoSuccess(outputDFYAmount);\n    }\n}\n",
  "sourcePath": "/home/ylgr/TestProject/DeFi-VN-Smart-Contract/contracts/IdoDFY.sol",
  "compiler": {
    "name": "solc",
    "version": "0.7.2+commit.51b20bc0.Emscripten.clang"
  },
  "schemaVersion": "3.3.3",
  "updatedAt": "2020-12-30T09:47:35.349Z",
  "devdoc": {
    "kind": "dev",
    "methods": {
      "owner()": {
        "details": "Returns the address of the current owner."
      },
      "renounceOwnership()": {
        "details": "Leaves the contract without owner. It will not be possible to call `onlyOwner` functions anymore. Can only be called by the current owner. NOTE: Renouncing ownership will leave the contract without an owner, thereby removing any functionality that is only available to the owner."
      },
      "transferOwnership(address)": {
        "details": "Transfers ownership of the contract to a new account (`newOwner`). Can only be called by the current owner."
      }
    },
    "version": 1
  },
  "userdoc": {
    "kind": "user",
    "methods": {},
    "version": 1
  }
}