{
  "contractName": "IdoDFY",
  "abi": [
    {
      "anonymous": false,
      "inputs": [
        {
          "indexed": false,
          "internalType": "uint256",
          "name": "amount",
          "type": "uint256"
        }
      ],
      "name": "BuyIdoSuccess",
      "type": "event"
    },
    {
      "anonymous": false,
      "inputs": [
        {
          "indexed": false,
          "internalType": "address",
          "name": "tokenAddress",
          "type": "address"
        }
      ],
      "name": "DeleteExchangePairSucess",
      "type": "event"
    },
    {
      "anonymous": false,
      "inputs": [
        {
          "indexed": true,
          "internalType": "address",
          "name": "previousOwner",
          "type": "address"
        },
        {
          "indexed": true,
          "internalType": "address",
          "name": "newOwner",
          "type": "address"
        }
      ],
      "name": "OwnershipTransferred",
      "type": "event"
    },
    {
      "anonymous": false,
      "inputs": [
        {
          "indexed": false,
          "internalType": "address",
          "name": "tokenAddress",
          "type": "address"
        },
        {
          "indexed": false,
          "internalType": "uint256",
          "name": "outputDFYNumber",
          "type": "uint256"
        },
        {
          "indexed": false,
          "internalType": "uint256",
          "name": "inputTokenNumber",
          "type": "uint256"
        }
      ],
      "name": "UpsertExchangePairSucess",
      "type": "event"
    },
    {
      "inputs": [
        {
          "internalType": "address",
          "name": "",
          "type": "address"
        }
      ],
      "name": "exchangeValues",
      "outputs": [
        {
          "internalType": "uint256",
          "name": "outputDFYNumber",
          "type": "uint256"
        },
        {
          "internalType": "uint256",
          "name": "inputTokenNumber",
          "type": "uint256"
        },
        {
          "internalType": "bool",
          "name": "isExist",
          "type": "bool"
        }
      ],
      "stateMutability": "view",
      "type": "function"
    },
    {
      "inputs": [],
      "name": "owner",
      "outputs": [
        {
          "internalType": "address",
          "name": "",
          "type": "address"
        }
      ],
      "stateMutability": "view",
      "type": "function"
    },
    {
      "inputs": [],
      "name": "renounceOwnership",
      "outputs": [],
      "stateMutability": "nonpayable",
      "type": "function"
    },
    {
      "inputs": [
        {
          "internalType": "uint256",
          "name": "",
          "type": "uint256"
        }
      ],
      "name": "supportTokenAddress",
      "outputs": [
        {
          "internalType": "address",
          "name": "",
          "type": "address"
        }
      ],
      "stateMutability": "view",
      "type": "function"
    },
    {
      "inputs": [
        {
          "internalType": "address",
          "name": "newOwner",
          "type": "address"
        }
      ],
      "name": "transferOwnership",
      "outputs": [],
      "stateMutability": "nonpayable",
      "type": "function"
    },
    {
      "inputs": [
        {
          "internalType": "address",
          "name": "tokenAddress",
          "type": "address"
        },
        {
          "internalType": "uint256",
          "name": "outputDFYNumber",
          "type": "uint256"
        },
        {
          "internalType": "uint256",
          "name": "inputTokenNumber",
          "type": "uint256"
        }
      ],
      "name": "upsertExchangePair",
      "outputs": [],
      "stateMutability": "nonpayable",
      "type": "function"
    },
    {
      "inputs": [
        {
          "internalType": "address",
          "name": "tokenAddress",
          "type": "address"
        }
      ],
      "name": "deleteExchangePair",
      "outputs": [],
      "stateMutability": "nonpayable",
      "type": "function"
    },
    {
      "inputs": [],
      "name": "getOwner",
      "outputs": [
        {
          "internalType": "address",
          "name": "",
          "type": "address"
        }
      ],
      "stateMutability": "view",
      "type": "function"
    },
    {
      "inputs": [
        {
          "internalType": "address",
          "name": "tokenAddress",
          "type": "address"
        },
        {
          "internalType": "uint256",
          "name": "amount",
          "type": "uint256"
        }
      ],
      "name": "buyIdo",
      "outputs": [],
      "stateMutability": "nonpayable",
      "type": "function"
    },
    {
      "inputs": [],
      "name": "getTokenSupport",
      "outputs": [
        {
          "internalType": "address[]",
          "name": "",
          "type": "address[]"
        }
      ],
      "stateMutability": "view",
      "type": "function"
    }
  ],
  "bytecode": "0x6080604052600180546001600160a01b03191673b6bd9bba44c8369d47f07ccc9032e65e811a112d17905534801561003657600080fd5b506000610041610090565b600080546001600160a01b0319166001600160a01b0383169081178255604051929350917f8be0079c531659141344cd1fd0a4f28419497f9722a3daafe3b4186f6b6457e0908290a350610094565b3390565b610c51806100a36000396000f3fe608060405234801561001057600080fd5b506004361061009e5760003560e01c80638da5cb5b116100665780638da5cb5b1461017b5780639cac0f1514610183578063d0c3d526146101b5578063f2fde38b146101fb578063fadd8f31146102215761009e565b8063187e576b146100a357806356bd5e10146100d1578063715018a6146100f757806383d899fc146100ff578063893d20e814610157575b600080fd5b6100cf600480360360408110156100b957600080fd5b506001600160a01b03813516906020013561023e565b005b6100cf600480360360208110156100e757600080fd5b50356001600160a01b0316610724565b6100cf61080b565b6101076108ad565b60408051602080825283518183015283519192839290830191858101910280838360005b8381101561014357818101518382015260200161012b565b505050509050019250505060405180910390f35b61015f61090f565b604080516001600160a01b039092168252519081900360200190f35b61015f61091e565b6100cf6004803603606081101561019957600080fd5b506001600160a01b03813516906020810135906040013561092d565b6101db600480360360208110156101cb57600080fd5b50356001600160a01b0316610a8f565b604080519384526020840192909252151582820152519081900360600190f35b6100cf6004803603602081101561021157600080fd5b50356001600160a01b0316610ab2565b61015f6004803603602081101561023757600080fd5b5035610baa565b6001600160a01b0382166000908152600260208190526040909120015460ff166102af576040805162461bcd60e51b815260206004820152601b60248201527f45786368616e67652070616972206973206e6f74206578697374210000000000604482015290519081900360640190fd5b604080516370a0823160e01b81523360048201529051839183916001600160a01b038416916370a08231916024808301926020929190829003018186803b1580156102f957600080fd5b505afa15801561030d573d6000803e3d6000fd5b505050506040513d602081101561032357600080fd5b505111610377576040805162461bcd60e51b815260206004820152601d60248201527f5472616e7366657220746f6b656e2062616c616e636520746f206c6f77000000604482015290519081900360640190fd5b6001600160a01b03831660009081526002602052604081206001810154905484028161039f57fe5b600154604080516370a0823160e01b8152306004820152905193909204935083926001600160a01b03909116916370a08231916024808301926020929190829003018186803b1580156103f157600080fd5b505afa158015610405573d6000803e3d6000fd5b505050506040513d602081101561041b57600080fd5b505111610467576040805162461bcd60e51b8152602060048201526015602482015274111196481d1bdad95b881b9bdd08195b9bdd59da1d605a1b604482015290519081900360640190fd5b6001546040805163095ea7b360e01b81523360048201526024810184905290516001600160a01b039092169163095ea7b3916044808201926020929091908290030181600087803b1580156104bb57600080fd5b505af11580156104cf573d6000803e3d6000fd5b505050506040513d60208110156104e557600080fd5b505161052e576040805162461bcd60e51b815260206004820152601360248201527244465920617070726f7665206661696c65642160681b604482015290519081900360640190fd5b6001546040805163a9059cbb60e01b81523360048201526024810184905290516001600160a01b039092169163a9059cbb916044808201926020929091908290030181600087803b15801561058257600080fd5b505af1158015610596573d6000803e3d6000fd5b505050506040513d60208110156105ac57600080fd5b50516105ff576040805162461bcd60e51b815260206004820152601b60248201527f546f6b656e2044465920616c6c6f77616e636520746f6f206c6f770000000000604482015290519081900360640190fd5b816001600160a01b03166323b872dd3361061761091e565b866040518463ffffffff1660e01b815260040180846001600160a01b03168152602001836001600160a01b031681526020018281526020019350505050602060405180830381600087803b15801561066e57600080fd5b505af1158015610682573d6000803e3d6000fd5b505050506040513d602081101561069857600080fd5b50516106eb576040805162461bcd60e51b815260206004820181905260248201527f546f6b656e207472616e7366657220616c6c6f77616e636520746f6f206c6f77604482015290519081900360640190fd5b6040805182815290517f49b657a02138236629455748de8f2f8c61d04dde90c5b56f6479d51b27c9412b9181900360200190a150505050565b61072c610bd1565b6000546001600160a01b0390811691161461077c576040805162461bcd60e51b81526020600482018190526024820152600080516020610bfc833981519152604482015290519081900360640190fd5b6001600160a01b0381166000908152600260208190526040909120015460ff166107a557600080fd5b6001600160a01b0381166000818152600260208181526040808420848155600181019490945592909101805460ff19169055815192835290517fef357f839ee40fe26eb32ed243bbc57a3ed536ef07fb03d5c4f42dcf57c19ed49281900390910190a150565b610813610bd1565b6000546001600160a01b03908116911614610863576040805162461bcd60e51b81526020600482018190526024820152600080516020610bfc833981519152604482015290519081900360640190fd5b600080546040516001600160a01b03909116907f8be0079c531659141344cd1fd0a4f28419497f9722a3daafe3b4186f6b6457e0908390a3600080546001600160a01b0319169055565b6060600380548060200260200160405190810160405280929190818152602001828054801561090557602002820191906000526020600020905b81546001600160a01b031681526001909101906020018083116108e7575b5050505050905090565b600061091961091e565b905090565b6000546001600160a01b031690565b610935610bd1565b6000546001600160a01b03908116911614610985576040805162461bcd60e51b81526020600482018190526024820152600080516020610bfc833981519152604482015290519081900360640190fd5b6001600160a01b0383166000908152600260208190526040909120015460ff166109f557600380546001810182556000919091527fc2575a0e9e593c00f959f8c92f12db2869c3395a3b0502d05e2516446f71f85b0180546001600160a01b0319166001600160a01b0385161790555b6040805160608082018352848252602080830185815260018486018181526001600160a01b038a166000818152600280875290899020975188559351928701929092555194909101805460ff1916941515949094179093558351928352820185905281830184905291517fd6c65ecdf3b74cc1ccd4fbe06efc7ed07c9747a8fecdf4a015c4814e1ea7f3a8929181900390910190a1505050565b600260208190526000918252604090912080546001820154919092015460ff1683565b610aba610bd1565b6000546001600160a01b03908116911614610b0a576040805162461bcd60e51b81526020600482018190526024820152600080516020610bfc833981519152604482015290519081900360640190fd5b6001600160a01b038116610b4f5760405162461bcd60e51b8152600401808060200182810382526026815260200180610bd66026913960400191505060405180910390fd5b600080546040516001600160a01b03808516939216917f8be0079c531659141344cd1fd0a4f28419497f9722a3daafe3b4186f6b6457e091a3600080546001600160a01b0319166001600160a01b0392909216919091179055565b60038181548110610bb757fe5b6000918252602090912001546001600160a01b0316905081565b339056fe4f776e61626c653a206e6577206f776e657220697320746865207a65726f20616464726573734f776e61626c653a2063616c6c6572206973206e6f7420746865206f776e6572a2646970667358221220511ab5487de5f2d6e07ad4add29da16803c39019791f7f14fe88679ea8ecad3664736f6c63430007020033",
  "immutableReferences": {},
  "source": "// SPDX-License-Identifier: MIT\n\npragma solidity ^0.7.0;\nimport \"@openzeppelin/contracts/token/ERC20/IERC20.sol\";\nimport \"@openzeppelin/contracts/access/Ownable.sol\";\n//import \"https://github.com/OpenZeppelin/openzeppelin-contracts/blob/v3.3.0/contracts/token/ERC20/ERC20.sol\";\n//import \"https://github.com/OpenZeppelin/openzeppelin-contracts/blob/v3.3.0/contracts/access/Ownable.sol\";\n\ncontract IdoDFY is Ownable {\n\n    IERC20 private DFYToken = IERC20(address(0xB6bd9Bba44C8369D47f07CcC9032e65E811A112d));\n\n    struct ExchangeValue {\n        uint256 outputDFYNumber;\n        uint256 inputTokenNumber;\n        bool isExist;\n    }\n\n    mapping(address => ExchangeValue) public exchangeValues;\n\n    address [] public supportTokenAddress;\n\n    event UpsertExchangePairSucess(address tokenAddress, uint256 outputDFYNumber, uint256 inputTokenNumber);\n\n    function upsertExchangePair(address tokenAddress,uint256 outputDFYNumber,uint256 inputTokenNumber) public onlyOwner {\n        if(!exchangeValues[tokenAddress].isExist) {\n            supportTokenAddress.push(tokenAddress);\n        }\n        exchangeValues[tokenAddress] = ExchangeValue(outputDFYNumber, inputTokenNumber, true);\n        emit UpsertExchangePairSucess(tokenAddress, outputDFYNumber, inputTokenNumber);\n    }\n\n    event DeleteExchangePairSucess(address tokenAddress);\n\n    function deleteExchangePair(address tokenAddress) public onlyOwner {\n        require(exchangeValues[tokenAddress].isExist);\n\n        delete exchangeValues[tokenAddress];\n        // TODO delete element from supportTokenAddress\n        emit DeleteExchangePairSucess(tokenAddress);\n    }\n\n    function getOwner() external view returns (address) {\n        return owner();\n    }\n\n    event BuyIdoSuccess(uint256 amount);\n\n    function buyIdo(address tokenAddress, uint256 amount) external {\n        require(exchangeValues[tokenAddress].isExist, \"Exchange pair is not exist!\");\n\n        IERC20 transferToken = IERC20(tokenAddress);\n\n        require(transferToken.balanceOf(msg.sender) > amount, \"Transfer token balance to low\");\n\n        uint256 outputDFYAmount = exchangeValues[tokenAddress].outputDFYNumber * amount / exchangeValues[tokenAddress].inputTokenNumber;\n\n        require(DFYToken.balanceOf(address(this)) > outputDFYAmount, \"DFY token not enought\");\n\n        require(DFYToken.approve(msg.sender, outputDFYAmount), \"DFY approve failed!\");\n\n        require(DFYToken.transfer(msg.sender, outputDFYAmount), \"Token DFY allowance too low\");\n\n        // require  DFY.approve(owner(), amount)\n        require(transferToken.transferFrom(msg.sender, owner(), amount), \"Token transfer allowance too low\");\n\n        emit BuyIdoSuccess(outputDFYAmount);\n    }\n\n    function getTokenSupport() public view returns(address[] memory) {\n        return supportTokenAddress;\n    }\n}\n",
  "sourcePath": "/home/ylgr/TestProject/DeFi-VN-Smart-Contract/contracts/IdoDFY.sol",
  "compiler": {
    "name": "solc",
    "version": "0.7.2+commit.51b20bc0.Emscripten.clang"
  },
  "schemaVersion": "3.3.3",
  "updatedAt": "2020-12-31T08:48:16.706Z",
  "devdoc": {
    "kind": "dev",
    "methods": {
      "owner()": {
        "details": "Returns the address of the current owner."
      },
      "renounceOwnership()": {
        "details": "Leaves the contract without owner. It will not be possible to call `onlyOwner` functions anymore. Can only be called by the current owner. NOTE: Renouncing ownership will leave the contract without an owner, thereby removing any functionality that is only available to the owner."
      },
      "transferOwnership(address)": {
        "details": "Transfers ownership of the contract to a new account (`newOwner`). Can only be called by the current owner."
      }
    },
    "version": 1
  },
  "userdoc": {
    "kind": "user",
    "methods": {},
    "version": 1
  }
}